{
  "_format": "hh-sol-artifact-1",
  "contractName": "HolonSecDeposit",
  "sourceName": "contracts/HolonSecDeposit.sol",
  "abi": [
    {
      "inputs": [],
      "stateMutability": "nonpayable",
      "type": "constructor"
    },
    {
      "anonymous": false,
      "inputs": [
        {
          "indexed": true,
          "internalType": "address",
          "name": "owner",
          "type": "address"
        },
        {
          "indexed": true,
          "internalType": "address",
          "name": "approved",
          "type": "address"
        },
        {
          "indexed": true,
          "internalType": "uint256",
          "name": "tokenId",
          "type": "uint256"
        }
      ],
      "name": "Approval",
      "type": "event"
    },
    {
      "anonymous": false,
      "inputs": [
        {
          "indexed": true,
          "internalType": "address",
          "name": "owner",
          "type": "address"
        },
        {
          "indexed": true,
          "internalType": "address",
          "name": "operator",
          "type": "address"
        },
        {
          "indexed": false,
          "internalType": "bool",
          "name": "approved",
          "type": "bool"
        }
      ],
      "name": "ApprovalForAll",
      "type": "event"
    },
    {
      "anonymous": false,
      "inputs": [
        {
          "indexed": true,
          "internalType": "address",
          "name": "previousOwner",
          "type": "address"
        },
        {
          "indexed": true,
          "internalType": "address",
          "name": "newOwner",
          "type": "address"
        }
      ],
      "name": "OwnershipTransferred",
      "type": "event"
    },
    {
      "anonymous": false,
      "inputs": [
        {
          "indexed": true,
          "internalType": "address",
          "name": "from",
          "type": "address"
        },
        {
          "indexed": true,
          "internalType": "address",
          "name": "to",
          "type": "address"
        },
        {
          "indexed": true,
          "internalType": "uint256",
          "name": "tokenId",
          "type": "uint256"
        }
      ],
      "name": "Transfer",
      "type": "event"
    },
    {
      "inputs": [
        {
          "internalType": "address",
          "name": "to",
          "type": "address"
        },
        {
          "internalType": "uint256",
          "name": "tokenId",
          "type": "uint256"
        }
      ],
      "name": "approve",
      "outputs": [],
      "stateMutability": "nonpayable",
      "type": "function"
    },
    {
      "inputs": [
        {
          "internalType": "address",
          "name": "owner",
          "type": "address"
        }
      ],
      "name": "balanceOf",
      "outputs": [
        {
          "internalType": "uint256",
          "name": "",
          "type": "uint256"
        }
      ],
      "stateMutability": "view",
      "type": "function"
    },
    {
      "inputs": [
        {
          "internalType": "uint256",
          "name": "tokenId",
          "type": "uint256"
        }
      ],
      "name": "getApproved",
      "outputs": [
        {
          "internalType": "address",
          "name": "",
          "type": "address"
        }
      ],
      "stateMutability": "view",
      "type": "function"
    },
    {
      "inputs": [],
      "name": "getTotalWaves",
      "outputs": [
        {
          "internalType": "uint256",
          "name": "",
          "type": "uint256"
        }
      ],
      "stateMutability": "view",
      "type": "function"
    },
    {
      "inputs": [
        {
          "internalType": "address",
          "name": "owner",
          "type": "address"
        },
        {
          "internalType": "address",
          "name": "operator",
          "type": "address"
        }
      ],
      "name": "isApprovedForAll",
      "outputs": [
        {
          "internalType": "bool",
          "name": "",
          "type": "bool"
        }
      ],
      "stateMutability": "view",
      "type": "function"
    },
    {
      "inputs": [
        {
          "internalType": "address",
          "name": "recipient",
          "type": "address"
        },
        {
          "internalType": "string",
          "name": "uri",
          "type": "string"
        }
      ],
      "name": "mint",
      "outputs": [
        {
          "internalType": "uint256",
          "name": "",
          "type": "uint256"
        }
      ],
      "stateMutability": "nonpayable",
      "type": "function"
    },
    {
      "inputs": [],
      "name": "name",
      "outputs": [
        {
          "internalType": "string",
          "name": "",
          "type": "string"
        }
      ],
      "stateMutability": "view",
      "type": "function"
    },
    {
      "inputs": [],
      "name": "owner",
      "outputs": [
        {
          "internalType": "address",
          "name": "",
          "type": "address"
        }
      ],
      "stateMutability": "view",
      "type": "function"
    },
    {
      "inputs": [
        {
          "internalType": "uint256",
          "name": "tokenId",
          "type": "uint256"
        }
      ],
      "name": "ownerOf",
      "outputs": [
        {
          "internalType": "address",
          "name": "",
          "type": "address"
        }
      ],
      "stateMutability": "view",
      "type": "function"
    },
    {
      "inputs": [],
      "name": "renounceOwnership",
      "outputs": [],
      "stateMutability": "nonpayable",
      "type": "function"
    },
    {
      "inputs": [
        {
          "internalType": "address",
          "name": "from",
          "type": "address"
        },
        {
          "internalType": "address",
          "name": "to",
          "type": "address"
        },
        {
          "internalType": "uint256",
          "name": "tokenId",
          "type": "uint256"
        }
      ],
      "name": "safeTransferFrom",
      "outputs": [],
      "stateMutability": "nonpayable",
      "type": "function"
    },
    {
      "inputs": [
        {
          "internalType": "address",
          "name": "from",
          "type": "address"
        },
        {
          "internalType": "address",
          "name": "to",
          "type": "address"
        },
        {
          "internalType": "uint256",
          "name": "tokenId",
          "type": "uint256"
        },
        {
          "internalType": "bytes",
          "name": "_data",
          "type": "bytes"
        }
      ],
      "name": "safeTransferFrom",
      "outputs": [],
      "stateMutability": "nonpayable",
      "type": "function"
    },
    {
      "inputs": [
        {
          "internalType": "address",
          "name": "operator",
          "type": "address"
        },
        {
          "internalType": "bool",
          "name": "approved",
          "type": "bool"
        }
      ],
      "name": "setApprovalForAll",
      "outputs": [],
      "stateMutability": "nonpayable",
      "type": "function"
    },
    {
      "inputs": [
        {
          "internalType": "bytes4",
          "name": "interfaceId",
          "type": "bytes4"
        }
      ],
      "name": "supportsInterface",
      "outputs": [
        {
          "internalType": "bool",
          "name": "",
          "type": "bool"
        }
      ],
      "stateMutability": "view",
      "type": "function"
    },
    {
      "inputs": [],
      "name": "symbol",
      "outputs": [
        {
          "internalType": "string",
          "name": "",
          "type": "string"
        }
      ],
      "stateMutability": "view",
      "type": "function"
    },
    {
      "inputs": [
        {
          "internalType": "uint256",
          "name": "tokenId",
          "type": "uint256"
        }
      ],
      "name": "tokenURI",
      "outputs": [
        {
          "internalType": "string",
          "name": "",
          "type": "string"
        }
      ],
      "stateMutability": "view",
      "type": "function"
    },
    {
      "inputs": [
        {
          "internalType": "address",
          "name": "from",
          "type": "address"
        },
        {
          "internalType": "address",
          "name": "to",
          "type": "address"
        },
        {
          "internalType": "uint256",
          "name": "tokenId",
          "type": "uint256"
        }
      ],
      "name": "transferFrom",
      "outputs": [],
      "stateMutability": "nonpayable",
      "type": "function"
    },
    {
      "inputs": [
        {
          "internalType": "address",
          "name": "newOwner",
          "type": "address"
        }
      ],
      "name": "transferOwnership",
      "outputs": [],
      "stateMutability": "nonpayable",
      "type": "function"
    },
    {
      "inputs": [],
      "name": "wave",
      "outputs": [],
      "stateMutability": "nonpayable",
      "type": "function"
    }
  ],
  "bytecode": "0x60806040523480156200001157600080fd5b50604080518082018252600f81526e121bdb1bdb94d958d1195c1bdcda5d608a1b6020808301918252835180850190945260048452631353919560e21b908401528151919291620000659160009162000192565b5080516200007b90600190602084019062000192565b5050506200009862000092620000cd60201b60201c565b620000d1565b620000c760405180606001604052806025815260200162001afe602591396200012360201b620007fe1760201c565b620002cb565b3390565b600680546001600160a01b038381166001600160a01b0319831681179093556040519116919082907f8be0079c531659141344cd1fd0a4f28419497f9722a3daafe3b4186f6b6457e090600090a35050565b6200016e816040516024016200013a919062000238565b60408051601f198184030181529190526020810180516001600160e01b0390811663104c13eb60e21b179091526200017116565b50565b80516a636f6e736f6c652e6c6f67602083016000808483855afa5050505050565b828054620001a0906200028e565b90600052602060002090601f016020900481019282620001c457600085556200020f565b82601f10620001df57805160ff19168380011785556200020f565b828001600101855582156200020f579182015b828111156200020f578251825591602001919060010190620001f2565b506200021d92915062000221565b5090565b5b808211156200021d576000815560010162000222565b6000602080835283518082850152825b81811015620002665785810183015185820160400152820162000248565b81811115620002785783604083870101525b50601f01601f1916929092016040019392505050565b600281046001821680620002a357607f821691505b60208210811415620002c557634e487b7160e01b600052602260045260246000fd5b50919050565b61182380620002db6000396000f3fe608060405234801561001057600080fd5b50600436106101215760003560e01c8063715018a6116100ad578063b88d4fde11610071578063b88d4fde1461022d578063c87b56dd14610240578063d0def52114610253578063e985e9c514610266578063f2fde38b1461027957610121565b8063715018a6146101fa5780638da5cb5b1461020257806395d89b411461020a5780639a2cdc0814610212578063a22cb4651461021a57610121565b806323b872dd116100f457806323b872dd1461019957806342842e0e146101ac5780636352211e146101bf5780636fe15b44146101d257806370a08231146101da57610121565b806301ffc9a71461012657806306fdde031461014f578063081812fc14610164578063095ea7b314610184575b600080fd5b61013961013436600461117c565b61028c565b6040516101469190611268565b60405180910390f35b6101576102d4565b6040516101469190611273565b6101776101723660046111b4565b610366565b6040516101469190611217565b610197610192366004611153565b6103b2565b005b6101976101a7366004611006565b61044a565b6101976101ba366004611006565b610482565b6101776101cd3660046111b4565b61049d565b6101976104d2565b6101ed6101e8366004610fba565b61051a565b6040516101469190611738565b61019761055e565b6101776105a7565b6101576105b6565b6101ed6105c5565b6101976102283660046110ba565b61060f565b61019761023b366004611041565b610625565b61015761024e3660046111b4565b610664565b6101ed6102613660046110f4565b61072a565b610139610274366004610fd4565b61075f565b610197610287366004610fba565b61078d565b60006001600160e01b031982166380ac58cd60e01b14806102bd57506001600160e01b03198216635b5e139f60e01b145b806102cc57506102cc82610841565b90505b919050565b6060600080546102e390611770565b80601f016020809104026020016040519081016040528092919081815260200182805461030f90611770565b801561035c5780601f106103315761010080835404028352916020019161035c565b820191906000526020600020905b81548152906001019060200180831161033f57829003601f168201915b5050505050905090565b60006103718261085a565b6103965760405162461bcd60e51b815260040161038d9061158d565b60405180910390fd5b506000908152600460205260409020546001600160a01b031690565b60006103bd8261049d565b9050806001600160a01b0316836001600160a01b031614156103f15760405162461bcd60e51b815260040161038d906116a6565b806001600160a01b0316610403610877565b6001600160a01b0316148061041f575061041f81610274610877565b61043b5760405162461bcd60e51b815260040161038d90611468565b610445838361087b565b505050565b61045b610455610877565b826108e9565b6104775760405162461bcd60e51b815260040161038d906116e7565b61044583838361096e565b61044583838360405180602001604052806000815250610625565b6000818152600260205260408120546001600160a01b0316806102cc5760405162461bcd60e51b815260040161038d9061150f565b6001600860008282546104e59190611741565b909155505060408051808201909152600d81526c2573206861732077617665642160981b60208201526105189033610a9b565b565b60006001600160a01b0382166105425760405162461bcd60e51b815260040161038d906114c5565b506001600160a01b031660009081526003602052604090205490565b610566610877565b6001600160a01b03166105776105a7565b6001600160a01b03161461059d5760405162461bcd60e51b815260040161038d906115d9565b6105186000610ae0565b6006546001600160a01b031690565b6060600180546102e390611770565b60006106086040518060400160405280601781526020017f5765206861766520256420746f74616c20776176657321000000000000000000815250600854610b32565b5060085490565b61062161061a610877565b8383610b77565b5050565b610636610630610877565b836108e9565b6106525760405162461bcd60e51b815260040161038d906116e7565b61065e84848484610c1a565b50505050565b606061066f8261085a565b61068b5760405162461bcd60e51b815260040161038d90611657565b600082815260096020526040812080546106a490611770565b80601f01602080910402602001604051908101604052809291908181526020018280546106d090611770565b801561071d5780601f106106f25761010080835404028352916020019161071d565b820191906000526020600020905b81548152906001019060200180831161070057829003601f168201915b5093979650505050505050565b60006107366007610c4d565b60006107426007610c56565b905061074e8482610c5a565b6107588184610d39565b9392505050565b6001600160a01b03918216600090815260056020908152604080832093909416825291909152205460ff1690565b610795610877565b6001600160a01b03166107a66105a7565b6001600160a01b0316146107cc5760405162461bcd60e51b815260040161038d906115d9565b6001600160a01b0381166107f25760405162461bcd60e51b815260040161038d90611324565b6107fb81610ae0565b50565b6107fb816040516024016108129190611273565b60408051601f198184030181529190526020810180516001600160e01b031663104c13eb60e21b179052610d58565b6001600160e01b031981166301ffc9a760e01b14919050565b6000908152600260205260409020546001600160a01b0316151590565b3390565b600081815260046020526040902080546001600160a01b0319166001600160a01b03841690811790915581906108b08261049d565b6001600160a01b03167f8c5be1e5ebec7d5bd14f71427d1e84f3dd0314c0f7b2291e5b200ac8c7c3b92560405160405180910390a45050565b60006108f48261085a565b6109105760405162461bcd60e51b815260040161038d9061141c565b600061091b8361049d565b9050806001600160a01b0316846001600160a01b031614806109565750836001600160a01b031661094b84610366565b6001600160a01b0316145b806109665750610966818561075f565b949350505050565b826001600160a01b03166109818261049d565b6001600160a01b0316146109a75760405162461bcd60e51b815260040161038d9061160e565b6001600160a01b0382166109cd5760405162461bcd60e51b815260040161038d906113a1565b6109d8838383610445565b6109e360008261087b565b6001600160a01b0383166000908152600360205260408120805460019290610a0c908490611759565b90915550506001600160a01b0382166000908152600360205260408120805460019290610a3a908490611741565b909155505060008181526002602052604080822080546001600160a01b0319166001600160a01b0386811691821790925591518493918716917fddf252ad1be2c89b69c2b068fc378daa952ba7f163c4a11628f55a4df523b3ef91a4505050565b6106218282604051602401610ab1929190611286565b60408051601f198184030181529190526020810180516001600160e01b031663319af33360e01b179052610d58565b600680546001600160a01b038381166001600160a01b0319831681179093556040519116919082907f8be0079c531659141344cd1fd0a4f28419497f9722a3daafe3b4186f6b6457e090600090a35050565b6106218282604051602401610b489291906112b0565b60408051601f198184030181529190526020810180516001600160e01b03166309710a9d60e41b179052610d58565b816001600160a01b0316836001600160a01b03161415610ba95760405162461bcd60e51b815260040161038d906113e5565b6001600160a01b0383811660008181526005602090815260408083209487168084529490915290819020805460ff1916851515179055517f17307eab39ab6107e8899845ad3d59bd9653f200f220920489ca2b5937696c3190610c0d908590611268565b60405180910390a3505050565b610c2584848461096e565b610c3184848484610d79565b61065e5760405162461bcd60e51b815260040161038d906112d2565b80546001019055565b5490565b6001600160a01b038216610c805760405162461bcd60e51b815260040161038d90611558565b610c898161085a565b15610ca65760405162461bcd60e51b815260040161038d9061136a565b610cb260008383610445565b6001600160a01b0382166000908152600360205260408120805460019290610cdb908490611741565b909155505060008181526002602052604080822080546001600160a01b0319166001600160a01b03861690811790915590518392907fddf252ad1be2c89b69c2b068fc378daa952ba7f163c4a11628f55a4df523b3ef908290a45050565b6000828152600960209081526040909120825161044592840190610e9a565b80516a636f6e736f6c652e6c6f67602083016000808483855afa5050505050565b6000610d8d846001600160a01b0316610e94565b15610e8957836001600160a01b031663150b7a02610da9610877565b8786866040518563ffffffff1660e01b8152600401610dcb949392919061122b565b602060405180830381600087803b158015610de557600080fd5b505af1925050508015610e15575060408051601f3d908101601f19168201909252610e1291810190611198565b60015b610e6f573d808015610e43576040519150601f19603f3d011682016040523d82523d6000602084013e610e48565b606091505b508051610e675760405162461bcd60e51b815260040161038d906112d2565b805181602001fd5b6001600160e01b031916630a85bd0160e11b149050610966565b506001949350505050565b3b151590565b828054610ea690611770565b90600052602060002090601f016020900481019282610ec85760008555610f0e565b82601f10610ee157805160ff1916838001178555610f0e565b82800160010185558215610f0e579182015b82811115610f0e578251825591602001919060010190610ef3565b50610f1a929150610f1e565b5090565b5b80821115610f1a5760008155600101610f1f565b600067ffffffffffffffff80841115610f4e57610f4e6117c1565b604051601f8501601f191681016020018281118282101715610f7257610f726117c1565b604052848152915081838501861015610f8a57600080fd5b8484602083013760006020868301015250509392505050565b80356001600160a01b03811681146102cf57600080fd5b600060208284031215610fcb578081fd5b61075882610fa3565b60008060408385031215610fe6578081fd5b610fef83610fa3565b9150610ffd60208401610fa3565b90509250929050565b60008060006060848603121561101a578081fd5b61102384610fa3565b925061103160208501610fa3565b9150604084013590509250925092565b60008060008060808587031215611056578081fd5b61105f85610fa3565b935061106d60208601610fa3565b925060408501359150606085013567ffffffffffffffff81111561108f578182fd5b8501601f8101871361109f578182fd5b6110ae87823560208401610f33565b91505092959194509250565b600080604083850312156110cc578182fd5b6110d583610fa3565b9150602083013580151581146110e9578182fd5b809150509250929050565b60008060408385031215611106578182fd5b61110f83610fa3565b9150602083013567ffffffffffffffff81111561112a578182fd5b8301601f8101851361113a578182fd5b61114985823560208401610f33565b9150509250929050565b60008060408385031215611165578182fd5b61116e83610fa3565b946020939093013593505050565b60006020828403121561118d578081fd5b8135610758816117d7565b6000602082840312156111a9578081fd5b8151610758816117d7565b6000602082840312156111c5578081fd5b5035919050565b60008151808452815b818110156111f1576020818501810151868301820152016111d5565b818111156112025782602083870101525b50601f01601f19169290920160200192915050565b6001600160a01b0391909116815260200190565b6001600160a01b038581168252841660208201526040810183905260806060820181905260009061125e908301846111cc565b9695505050505050565b901515815260200190565b60006020825261075860208301846111cc565b60006040825261129960408301856111cc565b905060018060a01b03831660208301529392505050565b6000604082526112c360408301856111cc565b90508260208301529392505050565b60208082526032908201527f4552433732313a207472616e7366657220746f206e6f6e20455243373231526560408201527131b2b4bb32b91034b6b83632b6b2b73a32b960711b606082015260800190565b60208082526026908201527f4f776e61626c653a206e6577206f776e657220697320746865207a65726f206160408201526564647265737360d01b606082015260800190565b6020808252601c908201527f4552433732313a20746f6b656e20616c7265616479206d696e74656400000000604082015260600190565b60208082526024908201527f4552433732313a207472616e7366657220746f20746865207a65726f206164646040820152637265737360e01b606082015260800190565b60208082526019908201527f4552433732313a20617070726f766520746f2063616c6c657200000000000000604082015260600190565b6020808252602c908201527f4552433732313a206f70657261746f7220717565727920666f72206e6f6e657860408201526b34b9ba32b73a103a37b5b2b760a11b606082015260800190565b60208082526038908201527f4552433732313a20617070726f76652063616c6c6572206973206e6f74206f7760408201527f6e6572206e6f7220617070726f76656420666f7220616c6c0000000000000000606082015260800190565b6020808252602a908201527f4552433732313a2062616c616e636520717565727920666f7220746865207a65604082015269726f206164647265737360b01b606082015260800190565b60208082526029908201527f4552433732313a206f776e657220717565727920666f72206e6f6e657869737460408201526832b73a103a37b5b2b760b91b606082015260800190565b6020808252818101527f4552433732313a206d696e7420746f20746865207a65726f2061646472657373604082015260600190565b6020808252602c908201527f4552433732313a20617070726f76656420717565727920666f72206e6f6e657860408201526b34b9ba32b73a103a37b5b2b760a11b606082015260800190565b6020808252818101527f4f776e61626c653a2063616c6c6572206973206e6f7420746865206f776e6572604082015260600190565b60208082526029908201527f4552433732313a207472616e73666572206f6620746f6b656e2074686174206960408201526839903737ba1037bbb760b91b606082015260800190565b6020808252602f908201527f4552433732314d657461646174613a2055524920717565727920666f72206e6f60408201526e3732bc34b9ba32b73a103a37b5b2b760891b606082015260800190565b60208082526021908201527f4552433732313a20617070726f76616c20746f2063757272656e74206f776e656040820152603960f91b606082015260800190565b60208082526031908201527f4552433732313a207472616e736665722063616c6c6572206973206e6f74206f6040820152701ddb995c881b9bdc88185c1c1c9bdd9959607a1b606082015260800190565b90815260200190565b60008219821115611754576117546117ab565b500190565b60008282101561176b5761176b6117ab565b500390565b60028104600182168061178457607f821691505b602082108114156117a557634e487b7160e01b600052602260045260246000fd5b50919050565b634e487b7160e01b600052601160045260246000fd5b634e487b7160e01b600052604160045260246000fd5b6001600160e01b0319811681146107fb57600080fdfea26469706673582212206795a754c62ff4694d29ec2b63771f0c932fa77d774c0afccb56938b4ea0cc9764736f6c63430008000033696e697469616c697a696e6720486f6c6f6e5365634465706f73697420636f6e7472616374",
  "linkReferences": {},
  "deployedLinkReferences": {}
}