{
  "_format": "hh-sol-artifact-1",
  "contractName": "OwnerDeposit",
  "sourceName": "contracts/OwnerDeposit.sol",
  "abi": [
    {
      "inputs": [],
      "stateMutability": "nonpayable",
      "type": "constructor"
    },
    {
      "anonymous": false,
      "inputs": [
        {
          "indexed": true,
          "internalType": "address",
          "name": "sender",
          "type": "address"
        },
        {
          "indexed": false,
          "internalType": "uint256",
          "name": "amount",
          "type": "uint256"
        }
      ],
      "name": "Stake",
      "type": "event"
    },
    {
      "anonymous": false,
      "inputs": [
        {
          "indexed": false,
          "internalType": "address",
          "name": "sender",
          "type": "address"
        },
        {
          "indexed": false,
          "internalType": "uint256",
          "name": "amount",
          "type": "uint256"
        }
      ],
      "name": "Withdraw",
      "type": "event"
    },
    {
      "inputs": [
        {
          "internalType": "address",
          "name": "",
          "type": "address"
        }
      ],
      "name": "balances",
      "outputs": [
        {
          "internalType": "uint256",
          "name": "",
          "type": "uint256"
        }
      ],
      "stateMutability": "view",
      "type": "function"
    },
    {
      "inputs": [],
      "name": "stake",
      "outputs": [],
      "stateMutability": "payable",
      "type": "function"
    },
    {
      "inputs": [],
      "name": "stakeUSDC",
      "outputs": [],
      "stateMutability": "payable",
      "type": "function"
    },
    {
      "inputs": [],
      "name": "usdc",
      "outputs": [
        {
          "internalType": "address",
          "name": "",
          "type": "address"
        }
      ],
      "stateMutability": "view",
      "type": "function"
    },
    {
      "inputs": [],
      "name": "viewBalance",
      "outputs": [
        {
          "internalType": "uint256",
          "name": "",
          "type": "uint256"
        }
      ],
      "stateMutability": "view",
      "type": "function"
    },
    {
      "inputs": [
        {
          "internalType": "address payable",
          "name": "addr",
          "type": "address"
        }
      ],
      "name": "withdraw",
      "outputs": [],
      "stateMutability": "nonpayable",
      "type": "function"
    },
    {
      "stateMutability": "payable",
      "type": "receive"
    }
  ],
  "bytecode": "0x6080604052600180546001600160a01b031916732791bca1f2de4661ed88a30c99a7a9449aa8417417905534801561003657600080fd5b50610297806100466000396000f3fe6080604052600436106100595760003560e01c806327e235e31461006d5780633a4b66f1146100a35780633e413bee146100ab5780633ff1e05b146100cd57806351cff8d9146100e2578063a58460ed146100a357610068565b3661006857610066610102565b005b600080fd5b34801561007957600080fd5b5061008d6100883660046101e5565b610162565b60405161009a919061021c565b60405180910390f35b610066610102565b3480156100b757600080fd5b506100c0610174565b60405161009a9190610208565b3480156100d957600080fd5b5061008d610183565b3480156100ee57600080fd5b506100666100fd3660046101e5565b610196565b3360009081526020819052604081208054349290610121908490610225565b909155505060405133907febedb8b3c678666e7f36970bc8f57abf6d8fa2e828c0da91ea5b75bf68ed101a9061015890349061021c565b60405180910390a2565b60006020819052908152604090205481565b6001546001600160a01b031681565b3360009081526020819052604090205490565b6001600160a01b038116600081815260208190526040808220805490839055905190929183156108fc02918491818181858888f193505050501580156101e0573d6000803e3d6000fd5b505050565b6000602082840312156101f6578081fd5b813561020181610249565b9392505050565b6001600160a01b0391909116815260200190565b90815260200190565b6000821982111561024457634e487b7160e01b81526011600452602481fd5b500190565b6001600160a01b038116811461025e57600080fd5b5056fea2646970667358221220e9cfbc2fc71f8a7cbc83c0cc2e0d5b7b813d72e8847bec5855492a7900667a7464736f6c63430008000033",
  "linkReferences": {},
  "deployedLinkReferences": {}
}